{
  "method": "multiSend",
  "parameters": [
    {
      "name": "transactions",
      "type": "bytes",
      "value": "0x000c6d898ac945e493d25751ea43be2c8beb881d8c0000000000000000000000000000000000000000000000000000000000000000000000000000000000000000000000000000000000000000000000000000004472cb5d970000000000000000000000001494ca1f11d487c2bbe4543e90080aeba4ba3c2b000000000000000000000000890ed1ee6d435a35d51081ded97ff7ce53be5942000c6d898ac945e493d25751ea43be2c8beb881d8c0000000000000000000000000000000000000000000000000000000000000000000000000000000000000000000000000000000000000000000000000000004472cb5d970000000000000000000000002af1df3ab0ab157e1e2ad8f88a7d04fbea0c7dc6000000000000000000000000aca8c8927d7bc553aeaf9d1c9ea9c1d8c88da243000c6d898ac945e493d25751ea43be2c8beb881d8c0000000000000000000000000000000000000000000000000000000000000000000000000000000000000000000000000000000000000000000000000000004472cb5d9700000000000000000000000033d63ba1e57e54779f7ddaeaa7109349344cf5f100000000000000000000000087e7a3cb9549fc88dea4d9c35a9dd47a2f53ad80000c6d898ac945e493d25751ea43be2c8beb881d8c0000000000000000000000000000000000000000000000000000000000000000000000000000000000000000000000000000000000000000000000000000004472cb5d9700000000000000000000000026607ac599266b21d13c7acf7942c7701a8b699c000000000000000000000000add1ede9b828f23fda9da724092004c38642b5f1000c6d898ac945e493d25751ea43be2c8beb881d8c0000000000000000000000000000000000000000000000000000000000000000000000000000000000000000000000000000000000000000000000000000004472cb5d970000000000000000000000009ba60ba98413a60db4c651d4afe5c937bbd8044b000000000000000000000000b41a7a429c73aa68683da1389051893fe290f614000c6d898ac945e493d25751ea43be2c8beb881d8c0000000000000000000000000000000000000000000000000000000000000000000000000000000000000000000000000000000000000000000000000000004472cb5d97000000000000000000000000907feb27f8cc5b003db7e62dfc2f9b01ce3fadd60000000000000000000000005067c1d15467ad102e7b6fa4ab824a9b62566ff9000c6d898ac945e493d25751ea43be2c8beb881d8c0000000000000000000000000000000000000000000000000000000000000000000000000000000000000000000000000000000000000000000000000000004472cb5d97000000000000000000000000aa6e8127831c9de45ae56bb1b0d4d4da6e5665bd00000000000000000000000081cddbf4a9d21cf52ef49bda5e5d5c4ae2e40b3e000c6d898ac945e493d25751ea43be2c8beb881d8c0000000000000000000000000000000000000000000000000000000000000000000000000000000000000000000000000000000000000000000000000000004472cb5d97000000000000000000000000d6cb2adf47655b1babddc214d79257348cbc39a70000000000000000000000004bb3b93d8e394cfe0f465a3581ae0b527ae33921000c6d898ac945e493d25751ea43be2c8beb881d8c0000000000000000000000000000000000000000000000000000000000000000000000000000000000000000000000000000000000000000000000000000004472cb5d970000000000000000000000000f4c00139602ab502bc7c1c0e71d6cb72a9fb0e70000000000000000000000000cf65dcf23c3a67d1a220a2732b5c2f7921a30c4000c6d898ac945e493d25751ea43be2c8beb881d8c0000000000000000000000000000000000000000000000000000000000000000000000000000000000000000000000000000000000000000000000000000004472cb5d97000000000000000000000000fdc4a3fc36df16a78edcaf1b837d3acaaedb2cb400000000000000000000000075deaa256730cf43ad6e12e591be77f22813ebab000c6d898ac945e493d25751ea43be2c8beb881d8c0000000000000000000000000000000000000000000000000000000000000000000000000000000000000000000000000000000000000000000000000000004472cb5d97000000000000000000000000b4bebd34f6daafd808f73de0d10235a92fbb6c3d000000000000000000000000a6a6550cbaf8ccd944f3dd41f2527d441999238c000c6d898ac945e493d25751ea43be2c8beb881d8c0000000000000000000000000000000000000000000000000000000000000000000000000000000000000000000000000000000000000000000000000000004472cb5d970000000000000000000000000ac1dba8252240589266194f9c27a42229e84b19000000000000000000000000ea9e30b15248ed3cf71b95c7ffa4c61b8ec77638000c6d898ac945e493d25751ea43be2c8beb881d8c0000000000000000000000000000000000000000000000000000000000000000000000000000000000000000000000000000000000000000000000000000004472cb5d97000000000000000000000000d076b9865feb49a43aa38c06b0432df6b6cbca9e000000000000000000000000b48bd102c6e318286ce1a00601ae1971fb9bee15000c6d898ac945e493d25751ea43be2c8beb881d8c0000000000000000000000000000000000000000000000000000000000000000000000000000000000000000000000000000000000000000000000000000004472cb5d970000000000000000000000003a4851597f36f459b58e65c55c8f3a8710313fc700000000000000000000000086736159120ca443cea1424a8335a28ced370215000c6d898ac945e493d25751ea43be2c8beb881d8c0000000000000000000000000000000000000000000000000000000000000000000000000000000000000000000000000000000000000000000000000000004472cb5d97000000000000000000000000e8e8486228753e01dbc222da262aa706bd67e6010000000000000000000000000c0dff3acb7278f9d2a8f009d8324bfd61d47114000c6d898ac945e493d25751ea43be2c8beb881d8c0000000000000000000000000000000000000000000000000000000000000000000000000000000000000000000000000000000000000000000000000000004472cb5d970000000000000000000000009a48bd0ec040ea4f1d3147c025cd4076a2e71e3e00000000000000000000000057203696a9bde98ba56b1e667841e85c2c60ce59000c6d898ac945e493d25751ea43be2c8beb881d8c0000000000000000000000000000000000000000000000000000000000000000000000000000000000000000000000000000000000000000000000000000004472cb5d9700000000000000000000000068bb81b3f67f7aab5fd1390ecb0b8e1a806f246500000000000000000000000016f7a9c3449f9c67e8c7e8f30ae1ee5d7b8ed10d000c6d898ac945e493d25751ea43be2c8beb881d8c0000000000000000000000000000000000000000000000000000000000000000000000000000000000000000000000000000000000000000000000000000004472cb5d97000000000000000000000000391603b1c3b03a0133ad82e91692790e58f735700000000000000000000000003a6f78566a29a478269f93ef1600beefc8f5f36a000c6d898ac945e493d25751ea43be2c8beb881d8c0000000000000000000000000000000000000000000000000000000000000000000000000000000000000000000000000000000000000000000000000000004472cb5d970000000000000000000000000b498ff89709d3838a063f1dfa463091f9801c2b0000000000000000000000002b7bd86a2633146d6a63334b0130e756327141fa000c6d898ac945e493d25751ea43be2c8beb881d8c0000000000000000000000000000000000000000000000000000000000000000000000000000000000000000000000000000000000000000000000000000004472cb5d9700000000000000000000000063ae7457b8be660daaf308a07db6bccb733b92df0000000000000000000000007b5dd414e5e80f12cb29589492451f3aa989a4dd000c6d898ac945e493d25751ea43be2c8beb881d8c0000000000000000000000000000000000000000000000000000000000000000000000000000000000000000000000000000000000000000000000000000004472cb5d9700000000000000000000000023687d9d40f9ecc86e7666dddb820e700f954526000000000000000000000000b572c9a3eb3adfe72c175d6a6be3ac0051d21372000c6d898ac945e493d25751ea43be2c8beb881d8c0000000000000000000000000000000000000000000000000000000000000000000000000000000000000000000000000000000000000000000000000000004472cb5d97000000000000000000000000bba8120b355bc70e771f28e151a141a126843cdf0000000000000000000000000b1281c92ea713e544ca29d7c68d9c3f5f6d4ae5000c6d898ac945e493d25751ea43be2c8beb881d8c0000000000000000000000000000000000000000000000000000000000000000000000000000000000000000000000000000000000000000000000000000004472cb5d97000000000000000000000000f059afa5239ed6463a00fc06a447c14fe26406e100000000000000000000000033deb629ea0fadbff489790e7fa8177c6c5c799e",
      "valueDecoded": [
        {
          "operation": 0,
          "to": "0x0c6D898ac945E493D25751Ea43BE2c8Beb881D8C",
          "value": "0",
          "data": "0x72cb5d970000000000000000000000001494ca1f11d487c2bbe4543e90080aeba4ba3c2b000000000000000000000000890ed1ee6d435a35d51081ded97ff7ce53be5942",
          "dataDecoded": {
            "method": "setStrategy",
            "parameters": [
              {
                "name": "lp",
                "type": "address",
                "value": "0x1494CA1F11D487c2bBe4543E90080AeBa4BA3C2b"
              },
              {
                "name": "strategy",
                "type": "address",
                "value": "0x890ed1Ee6d435a35d51081ded97Ff7CE53Be5942"
              }
            ]
          }
        },
        {
          "operation": 0,
          "to": "0x0c6D898ac945E493D25751Ea43BE2c8Beb881D8C",
          "value": "0",
          "data": "0x72cb5d970000000000000000000000002af1df3ab0ab157e1e2ad8f88a7d04fbea0c7dc6000000000000000000000000aca8c8927d7bc553aeaf9d1c9ea9c1d8c88da243",
          "dataDecoded": {
            "method": "setStrategy",
            "parameters": [
              {
                "name": "lp",
                "type": "address",
                "value": "0x2aF1dF3AB0ab157e1E2Ad8F88A7D04fbea0c7dc6"
              },
              {
                "name": "strategy",
                "type": "address",
                "value": "0xAcA8C8927D7bC553AEAF9D1c9eA9C1D8c88da243"
              }
            ]
          }
        },
        {
          "operation": 0,
          "to": "0x0c6D898ac945E493D25751Ea43BE2c8Beb881D8C",
          "value": "0",
          "data": "0x72cb5d9700000000000000000000000033d63ba1e57e54779f7ddaeaa7109349344cf5f100000000000000000000000087e7a3cb9549fc88dea4d9c35a9dd47a2f53ad80",
          "dataDecoded": {
            "method": "setStrategy",
            "parameters": [
              {
                "name": "lp",
                "type": "address",
                "value": "0x33d63Ba1E57E54779F7dDAeaA7109349344cf5F1"
              },
              {
                "name": "strategy",
                "type": "address",
                "value": "0x87E7A3CB9549fc88dEA4d9c35A9dd47a2F53AD80"
              }
            ]
          }
        },
        {
          "operation": 0,
          "to": "0x0c6D898ac945E493D25751Ea43BE2c8Beb881D8C",
          "value": "0",
          "data": "0x72cb5d9700000000000000000000000026607ac599266b21d13c7acf7942c7701a8b699c000000000000000000000000add1ede9b828f23fda9da724092004c38642b5f1",
          "dataDecoded": {
            "method": "setStrategy",
            "parameters": [
              {
                "name": "lp",
                "type": "address",
                "value": "0x26607aC599266b21d13c7aCF7942c7701a8b699c"
              },
              {
                "name": "strategy",
                "type": "address",
                "value": "0xaDD1eDE9b828f23FDa9da724092004c38642b5F1"
              }
            ]
          }
        },
        {
          "operation": 0,
          "to": "0x0c6D898ac945E493D25751Ea43BE2c8Beb881D8C",
          "value": "0",
          "data": "0x72cb5d970000000000000000000000009ba60ba98413a60db4c651d4afe5c937bbd8044b000000000000000000000000b41a7a429c73aa68683da1389051893fe290f614",
          "dataDecoded": {
            "method": "setStrategy",
            "parameters": [
              {
                "name": "lp",
                "type": "address",
                "value": "0x9ba60bA98413A60dB4C651D4afE5C937bbD8044B"
              },
              {
                "name": "strategy",
                "type": "address",
                "value": "0xb41A7a429c73Aa68683da1389051893Fe290F614"
              }
            ]
          }
        },
        {
          "operation": 0,
          "to": "0x0c6D898ac945E493D25751Ea43BE2c8Beb881D8C",
          "value": "0",
          "data": "0x72cb5d97000000000000000000000000907feb27f8cc5b003db7e62dfc2f9b01ce3fadd60000000000000000000000005067c1d15467ad102e7b6fa4ab824a9b62566ff9",
          "dataDecoded": {
            "method": "setStrategy",
            "parameters": [
              {
                "name": "lp",
                "type": "address",
                "value": "0x907FeB27f8cc5b003Db7e62dfc2f9B01ce3FADd6"
              },
              {
                "name": "strategy",
                "type": "address",
                "value": "0x5067C1D15467ad102E7b6fA4ab824a9B62566fF9"
              }
            ]
          }
        },
        {
          "operation": 0,
          "to": "0x0c6D898ac945E493D25751Ea43BE2c8Beb881D8C",
          "value": "0",
          "data": "0x72cb5d97000000000000000000000000aa6e8127831c9de45ae56bb1b0d4d4da6e5665bd00000000000000000000000081cddbf4a9d21cf52ef49bda5e5d5c4ae2e40b3e",
          "dataDecoded": {
            "method": "setStrategy",
            "parameters": [
              {
                "name": "lp",
                "type": "address",
                "value": "0xAa6E8127831c9DE45ae56bB1b0d4D4Da6e5665BD"
              },
              {
                "name": "strategy",
                "type": "address",
                "value": "0x81CDDBF4A9d21CF52ef49Bda5e5d5C4aE2e40B3e"
              }
            ]
          }
        },
        {
          "operation": 0,
          "to": "0x0c6D898ac945E493D25751Ea43BE2c8Beb881D8C",
          "value": "0",
          "data": "0x72cb5d97000000000000000000000000d6cb2adf47655b1babddc214d79257348cbc39a70000000000000000000000004bb3b93d8e394cfe0f465a3581ae0b527ae33921",
          "dataDecoded": {
            "method": "setStrategy",
            "parameters": [
              {
                "name": "lp",
                "type": "address",
                "value": "0xD6cb2aDF47655B1bABdDc214d79257348CBC39A7"
              },
              {
                "name": "strategy",
                "type": "address",
                "value": "0x4BB3b93D8E394CFe0f465A3581AE0b527ae33921"
              }
            ]
          }
        },
        {
          "operation": 0,
          "to": "0x0c6D898ac945E493D25751Ea43BE2c8Beb881D8C",
          "value": "0",
          "data": "0x72cb5d970000000000000000000000000f4c00139602ab502bc7c1c0e71d6cb72a9fb0e70000000000000000000000000cf65dcf23c3a67d1a220a2732b5c2f7921a30c4",
          "dataDecoded": {
            "method": "setStrategy",
            "parameters": [
              {
                "name": "lp",
                "type": "address",
                "value": "0x0f4c00139602AB502Bc7c1c0e71D6CB72A9FB0e7"
              },
              {
                "name": "strategy",
                "type": "address",
                "value": "0x0CF65Dcf23c3a67D1A220A2732B5c2F7921A30c4"
              }
            ]
          }
        },
        {
          "operation": 0,
          "to": "0x0c6D898ac945E493D25751Ea43BE2c8Beb881D8C",
          "value": "0",
          "data": "0x72cb5d97000000000000000000000000fdc4a3fc36df16a78edcaf1b837d3acaaedb2cb400000000000000000000000075deaa256730cf43ad6e12e591be77f22813ebab",
          "dataDecoded": {
            "method": "setStrategy",
            "parameters": [
              {
                "name": "lp",
                "type": "address",
                "value": "0xfDC4a3FC36df16a78edCAf1B837d3ACAaeDB2CB4"
              },
              {
                "name": "strategy",
                "type": "address",
                "value": "0x75deAA256730Cf43ad6E12E591Be77F22813EBAB"
              }
            ]
          }
        },
        {
          "operation": 0,
          "to": "0x0c6D898ac945E493D25751Ea43BE2c8Beb881D8C",
          "value": "0",
          "data": "0x72cb5d97000000000000000000000000b4bebd34f6daafd808f73de0d10235a92fbb6c3d000000000000000000000000a6a6550cbaf8ccd944f3dd41f2527d441999238c",
          "dataDecoded": {
            "method": "setStrategy",
            "parameters": [
              {
                "name": "lp",
                "type": "address",
                "value": "0xb4bebD34f6DaaFd808f73De0d10235a92Fbb6c3D"
              },
              {
                "name": "strategy",
                "type": "address",
                "value": "0xA6A6550CbAf8CCd944f3Dd41F2527d441999238c"
              }
            ]
          }
        },
        {
          "operation": 0,
          "to": "0x0c6D898ac945E493D25751Ea43BE2c8Beb881D8C",
          "value": "0",
          "data": "0x72cb5d970000000000000000000000000ac1dba8252240589266194f9c27a42229e84b19000000000000000000000000ea9e30b15248ed3cf71b95c7ffa4c61b8ec77638",
          "dataDecoded": {
            "method": "setStrategy",
            "parameters": [
              {
                "name": "lp",
                "type": "address",
                "value": "0x0ac1DBa8252240589266194F9C27a42229E84B19"
              },
              {
                "name": "strategy",
                "type": "address",
                "value": "0xEA9E30b15248ed3cf71b95C7FfA4c61b8EC77638"
              }
            ]
          }
        },
        {
          "operation": 0,
          "to": "0x0c6D898ac945E493D25751Ea43BE2c8Beb881D8C",
          "value": "0",
          "data": "0x72cb5d97000000000000000000000000d076b9865feb49a43aa38c06b0432df6b6cbca9e000000000000000000000000b48bd102c6e318286ce1a00601ae1971fb9bee15",
          "dataDecoded": {
            "method": "setStrategy",
            "parameters": [
              {
                "name": "lp",
                "type": "address",
                "value": "0xd076b9865feb49A43Aa38c06b0432dF6b6cBCA9E"
              },
              {
                "name": "strategy",
                "type": "address",
                "value": "0xB48BD102c6e318286cE1A00601ae1971Fb9BEE15"
              }
            ]
          }
        },
        {
          "operation": 0,
          "to": "0x0c6D898ac945E493D25751Ea43BE2c8Beb881D8C",
          "value": "0",
          "data": "0x72cb5d970000000000000000000000003a4851597f36f459b58e65c55c8f3a8710313fc700000000000000000000000086736159120ca443cea1424a8335a28ced370215",
          "dataDecoded": {
            "method": "setStrategy",
            "parameters": [
              {
                "name": "lp",
                "type": "address",
                "value": "0x3A4851597F36F459b58e65C55c8f3a8710313Fc7"
              },
              {
                "name": "strategy",
                "type": "address",
                "value": "0x86736159120Ca443CeA1424a8335a28cED370215"
              }
            ]
          }
        },
        {
          "operation": 0,
          "to": "0x0c6D898ac945E493D25751Ea43BE2c8Beb881D8C",
          "value": "0",
          "data": "0x72cb5d97000000000000000000000000e8e8486228753e01dbc222da262aa706bd67e6010000000000000000000000000c0dff3acb7278f9d2a8f009d8324bfd61d47114",
          "dataDecoded": {
            "method": "setStrategy",
            "parameters": [
              {
                "name": "lp",
                "type": "address",
                "value": "0xe8e8486228753E01Dbc222dA262Aa706Bd67e601"
              },
              {
                "name": "strategy",
                "type": "address",
                "value": "0x0C0dFf3ACB7278f9d2A8F009d8324bfD61d47114"
              }
            ]
          }
        },
        {
          "operation": 0,
          "to": "0x0c6D898ac945E493D25751Ea43BE2c8Beb881D8C",
          "value": "0",
          "data": "0x72cb5d970000000000000000000000009a48bd0ec040ea4f1d3147c025cd4076a2e71e3e00000000000000000000000057203696a9bde98ba56b1e667841e85c2c60ce59",
          "dataDecoded": {
            "method": "setStrategy",
            "parameters": [
              {
                "name": "lp",
                "type": "address",
                "value": "0x9A48BD0EC040ea4f1D3147C025cd4076A2e71e3e"
              },
              {
                "name": "strategy",
                "type": "address",
                "value": "0x57203696a9bDE98bA56b1e667841e85c2c60ce59"
              }
            ]
          }
        },
        {
          "operation": 0,
          "to": "0x0c6D898ac945E493D25751Ea43BE2c8Beb881D8C",
          "value": "0",
          "data": "0x72cb5d9700000000000000000000000068bb81b3f67f7aab5fd1390ecb0b8e1a806f246500000000000000000000000016f7a9c3449f9c67e8c7e8f30ae1ee5d7b8ed10d",
          "dataDecoded": {
            "method": "setStrategy",
            "parameters": [
              {
                "name": "lp",
                "type": "address",
                "value": "0x68bB81B3F67f7AAb5fd1390ECB0B8e1a806F2465"
              },
              {
                "name": "strategy",
                "type": "address",
                "value": "0x16F7a9c3449F9C67E8c7e8F30ae1ee5D7b8Ed10d"
              }
            ]
          }
        },
        {
          "operation": 0,
          "to": "0x0c6D898ac945E493D25751Ea43BE2c8Beb881D8C",
          "value": "0",
          "data": "0x72cb5d97000000000000000000000000391603b1c3b03a0133ad82e91692790e58f735700000000000000000000000003a6f78566a29a478269f93ef1600beefc8f5f36a",
          "dataDecoded": {
            "method": "setStrategy",
            "parameters": [
              {
                "name": "lp",
                "type": "address",
                "value": "0x391603b1C3b03A0133AD82E91692790e58f73570"
              },
              {
                "name": "strategy",
                "type": "address",
                "value": "0x3a6f78566a29a478269F93EF1600bEefc8f5f36a"
              }
            ]
          }
        },
        {
          "operation": 0,
          "to": "0x0c6D898ac945E493D25751Ea43BE2c8Beb881D8C",
          "value": "0",
          "data": "0x72cb5d970000000000000000000000000b498ff89709d3838a063f1dfa463091f9801c2b0000000000000000000000002b7bd86a2633146d6a63334b0130e756327141fa",
          "dataDecoded": {
            "method": "setStrategy",
            "parameters": [
              {
                "name": "lp",
                "type": "address",
                "value": "0x0B498ff89709d3838a063f1dFA463091F9801c2b"
              },
              {
                "name": "strategy",
                "type": "address",
                "value": "0x2B7bD86a2633146d6A63334b0130e756327141fa"
              }
            ]
          }
        },
        {
          "operation": 0,
          "to": "0x0c6D898ac945E493D25751Ea43BE2c8Beb881D8C",
          "value": "0",
          "data": "0x72cb5d9700000000000000000000000063ae7457b8be660daaf308a07db6bccb733b92df0000000000000000000000007b5dd414e5e80f12cb29589492451f3aa989a4dd",
          "dataDecoded": {
            "method": "setStrategy",
            "parameters": [
              {
                "name": "lp",
                "type": "address",
                "value": "0x63aE7457b8Be660DAaf308a07db6bccB733B92Df"
              },
              {
                "name": "strategy",
                "type": "address",
                "value": "0x7b5dd414E5E80F12cB29589492451F3AA989a4DD"
              }
            ]
          }
        },
        {
          "operation": 0,
          "to": "0x0c6D898ac945E493D25751Ea43BE2c8Beb881D8C",
          "value": "0",
          "data": "0x72cb5d9700000000000000000000000023687d9d40f9ecc86e7666dddb820e700f954526000000000000000000000000b572c9a3eb3adfe72c175d6a6be3ac0051d21372",
          "dataDecoded": {
            "method": "setStrategy",
            "parameters": [
              {
                "name": "lp",
                "type": "address",
                "value": "0x23687D9d40F9Ecc86E7666DDdB820e700F954526"
              },
              {
                "name": "strategy",
                "type": "address",
                "value": "0xB572c9a3EB3aDFe72c175D6A6be3aC0051D21372"
              }
            ]
          }
        },
        {
          "operation": 0,
          "to": "0x0c6D898ac945E493D25751Ea43BE2c8Beb881D8C",
          "value": "0",
          "data": "0x72cb5d97000000000000000000000000bba8120b355bc70e771f28e151a141a126843cdf0000000000000000000000000b1281c92ea713e544ca29d7c68d9c3f5f6d4ae5",
          "dataDecoded": {
            "method": "setStrategy",
            "parameters": [
              {
                "name": "lp",
                "type": "address",
                "value": "0xBbA8120b355bC70E771F28e151a141A126843CdF"
              },
              {
                "name": "strategy",
                "type": "address",
                "value": "0x0b1281c92ea713E544ca29D7C68d9c3f5F6d4Ae5"
              }
            ]
          }
        },
        {
          "operation": 0,
          "to": "0x0c6D898ac945E493D25751Ea43BE2c8Beb881D8C",
          "value": "0",
          "data": "0x72cb5d97000000000000000000000000f059afa5239ed6463a00fc06a447c14fe26406e100000000000000000000000033deb629ea0fadbff489790e7fa8177c6c5c799e",
          "dataDecoded": {
            "method": "setStrategy",
            "parameters": [
              {
                "name": "lp",
                "type": "address",
                "value": "0xF059aFA5239eD6463a00FC06a447c14Fe26406e1"
              },
              {
                "name": "strategy",
                "type": "address",
                "value": "0x33dEB629ea0fADbfF489790e7FA8177c6c5c799e"
              }
            ]
          }
        }
      ]
    }
  ]
}
