{
  "method": "multiSend",
  "parameters": [
    {
      "name": "transactions",
      "type": "bytes",
      "value": "0x000c6d898ac945e493d25751ea43be2c8beb881d8c00000000000000000000000000000000000000000000000000000000000000000000000000000000000000000000000000000000000000000000000000000044f64db0500000000000000000000000009ba60ba98413a60db4c651d4afe5c937bbd8044b0000000000000000000000000a883a62660328ead442eb6c2311668ba9c12e57000c6d898ac945e493d25751ea43be2c8beb881d8c00000000000000000000000000000000000000000000000000000000000000000000000000000000000000000000000000000000000000000000000000000044f64db050000000000000000000000000907feb27f8cc5b003db7e62dfc2f9b01ce3fadd6000000000000000000000000ae6859311c341bac4e0bceca0242247c16718ff1000c6d898ac945e493d25751ea43be2c8beb881d8c00000000000000000000000000000000000000000000000000000000000000000000000000000000000000000000000000000000000000000000000000000044f64db050000000000000000000000000aa6e8127831c9de45ae56bb1b0d4d4da6e5665bd0000000000000000000000009c9326c521895c78414bd3c2945e47afc4ef16cc",
      "valueDecoded": [
        {
          "operation": 0,
          "to": "0x0c6D898ac945E493D25751Ea43BE2c8Beb881D8C",
          "value": "0",
          "data": "0xf64db0500000000000000000000000009ba60ba98413a60db4c651d4afe5c937bbd8044b0000000000000000000000000a883a62660328ead442eb6c2311668ba9c12e57",
          "dataDecoded": {
            "method": "migrateAll",
            "parameters": [
              {
                "name": "lp",
                "type": "address",
                "value": "0x9ba60bA98413A60dB4C651D4afE5C937bbD8044B"
              },
              {
                "name": "adapter",
                "type": "address",
                "value": "0x0a883a62660328EAd442EB6c2311668ba9c12e57"
              }
            ]
          }
        },
        {
          "operation": 0,
          "to": "0x0c6D898ac945E493D25751Ea43BE2c8Beb881D8C",
          "value": "0",
          "data": "0xf64db050000000000000000000000000907feb27f8cc5b003db7e62dfc2f9b01ce3fadd6000000000000000000000000ae6859311c341bac4e0bceca0242247c16718ff1",
          "dataDecoded": {
            "method": "migrateAll",
            "parameters": [
              {
                "name": "lp",
                "type": "address",
                "value": "0x907FeB27f8cc5b003Db7e62dfc2f9B01ce3FADd6"
              },
              {
                "name": "adapter",
                "type": "address",
                "value": "0xaE6859311c341bAc4E0BcEcA0242247c16718FF1"
              }
            ]
          }
        },
        {
          "operation": 0,
          "to": "0x0c6D898ac945E493D25751Ea43BE2c8Beb881D8C",
          "value": "0",
          "data": "0xf64db050000000000000000000000000aa6e8127831c9de45ae56bb1b0d4d4da6e5665bd0000000000000000000000009c9326c521895c78414bd3c2945e47afc4ef16cc",
          "dataDecoded": {
            "method": "migrateAll",
            "parameters": [
              {
                "name": "lp",
                "type": "address",
                "value": "0xAa6E8127831c9DE45ae56bB1b0d4D4Da6e5665BD"
              },
              {
                "name": "adapter",
                "type": "address",
                "value": "0x9c9326C521895c78414BD3C2945e47AFC4Ef16cc"
              }
            ]
          }
        }
      ]
    }
  ]
}
